:020000040800F2
:10000000886A0020AD01000807250008471D000888
:100010000525000863080008A9300008000000005A
:10002000000000000000000000000000412B00085C
:10003000ED08000800000000FD2900085D2B000805
:10004000C7010008C7010008C7010008C701000870
:10005000C7010008C7010008C7010008C701000860
:10006000C7010008C7010008C7010008C701000850
:10007000C7010008C7010008C7010008C701000840
:10008000C7010008C7010008C70100080000000000
:10009000000000000000000000000000C701000890
:1000A000C7010008C7010008C7010008C701000810
:1000B000C7010008C7010008C7010008C701000800
:1000C000C7010008C7010008C7010008C7010008F0
:1000D000C70100089D300008C701000800000000AB
:1000E000C7010008C7010008C701000800000000A0
:1000F000000000000000000000000000C701000830
:1001000000000000C7010008C7010008C70100087F
:1001100000000000000000000000000000000000DF
:10012000C7010008C701000865080008C7010008EA
:10013000C7010008000000000000000000000000EF
:10014000000000000000000000000000C7010008DF
:10015000C7010008C7010008C7010008C70100085F
:10016000C7010008C70100080000000000000000EF
:10017000000000000000000000000000000000007F
:1001800000000000C701000800000000000000009F
:10019000C7010008C7010008DFF80CD000F0ECFA36
:1001A0000048004741480008886A00200648804708
:1001B00006480047FEE7FEE7FEE7FEE7FEE7FEE74C
:1001C000FEE7FEE7FEE7FEE7F12B000899010008D5
:1001D0002DE9F05F0546002092469B46884606467C
:1001E000814640241BE0284641464746224600F00F
:1001F00008F953465A46C01A914110D31146184681
:10020000224600F0EFF82D1A67EB01084F46224610
:100210000120002100F0E6F817EB00094E41201EF6
:10022000A4F10104DFDC484631462A464346BDE8D6
:10023000F09F40EA01039B0703D009E008C9121FA1
:1002400008C0042AFAD203E011F8013B00F8013B90
:10025000521EF9D27047D2B201E000F8012B491EBC
:10026000FBD270470022F6E710B513460A46044653
:100270001946FFF7F0FF204610BD421C10F8011B85
:100280000029FBD1801A704730B504460020034690
:1002900000E05B1C934203D2E05CCD5C401BF8D0D5
:1002A00030BD2DE9FE4F81EA030404F0004421F043
:1002B000004100944FF0000B23F0004350EA01048A
:1002C0005ED052EA03045BD0C3F30A54C1F30A556B
:1002D0002C44A4F2F3340194A0FB0254C1F31301A3
:1002E00041F48011C3F3130343F4801301FB024470
:1002F00000FB034E840A970A44EA815447EA835775
:10030000A4FB076802958D0A05FB07854FEA932C2D
:1003100004FB0C542705029D4FEA065847EA16379E
:10032000B5EB08056EEB070C870E920E47EA8117B6
:1003300042EA8312A7FB0201B6EB0B0164EB000457
:100340002B0D43EA0C335E1844EB1C50DA46514641
:10035000E7FB0201C5F313044FEA0B3343EA1453DE
:100360004FEA0432019C43EA0603A4F10C04029410
:10037000009CCDE900B400F09AF803B0BDE8F08F1E
:1003800000200146F9E700F0004230F000400AD0BA
:10039000C10D01F56071C0F3160042EA0151C208B7
:1003A00040071143704700200146704701F00043A9
:1003B00030B421F0004150EA010206D00A0DA2F546
:1003C0006072C1F31301002A02DC30BC00207047C8
:1003D000440F44EAC104C100E01830BC00EBC25035
:1003E00000F01FB8202A04DB203A00FA02F10020B6
:1003F00070479140C2F1200320FA03F31943904063
:100400007047202A04DB203A21FA02F000217047CD
:1004100021FA02F3D040C2F120029140084319466C
:1004200070470029A8BF7047401C490008BF20F052
:100430000100704710B4B0FA80FC00FA0CF050EAEA
:10044000010404BF10BC704749B1CCF1200421FA6B
:1004500004F411FA0CF118BF012121430843A3EB66
:100460000C01CB1D4FEA00614FEA102042BF002073
:1004700010BC704700EBC35010440029A4BF10BC4F
:100480007047401C490008BF20F0010010BC7047B5
:1004900010B5141E73F1000408DA401C41F100018C
:1004A00092185B411A4301D120F0010010BD2DE9E3
:1004B000F04D92469B4611B1B1FA81F202E0B0FADA
:1004C00080F220329046FFF78DFF04460F4640EA47
:1004D0000A0041EA0B0153465A46084313D011461D
:1004E00053EA010019D0C8F140025046FFF789FFD6
:1004F00005460E46504659464246FFF773FF0843ED
:1005000005D0012004E020463946BDE8F08D0020EA
:10051000054346EAE0762C4337430A986305E40A2C
:10052000A0EB08000022FD0A44EA47540A3002D535
:1005300000200146E9E7010510196941DDE9084598
:1005400000196941BDE8F04DA2E72DE9FE4F804654
:1005500081EA0300C00F0C46009021F0004123F017
:100560000045B8EB0200A94105D24046214690461D
:100570001C460B46024623F00040104347D0270D8F
:10058000C7F30A00C3F30A510290401A01904028B1
:100590006BDAC3F3130040F4801B0098924620B13D
:1005A0000023D2EB030A63EB0B0B01985946C0F111
:1005B00040025046FFF716FF06460D465046594684
:1005C000019A00F0EBF810EB08006141002487EA83
:1005D000115284EAE7731A4340D0009A62B3019A39
:1005E000012A4FEA075215DC001B61EB02014FF0B4
:1005F000004202EA0752CDE90042001C41F5801199
:1006000032462B46FFF753FF03B0BDE8F08F40465C
:100610002146F9E7001B61EB0201001C41F5801344
:1006200000185B412018A2F5001747EB030140EAD0
:10063000D570B6196D4111E06D084FEA360645EAEE
:10064000C0754FEA0752001B61EB0201001C41F527
:10065000801149084FEA30000019514132462B46BB
:1006600003B0BDE8F04FFFF713BF00980122400030
:100670000023D0EB020263EBE073009821464FEABF
:10068000E074B8EB000061EB0401E9E783F000439C
:100690005BE781F0004158E72DE9F04D81EA030462
:1006A00004F0004B21F0004514464FF0000A23F0FF
:1006B000004150EA050220D054EA01021DD0C5F3E2
:1006C0000A570246C5F31303C1F31300C1F30A56D8
:1006D00040F4801543F48013A7EB0608101BD646A0
:1006E00008F2FD3873EB050002D308F1010801E0C0
:1006F00092185B41B8F1000F03DA00200146BDE813
:10070000F08D00204FF48011064684460EE0171B42
:1007100073EB050705D3121B63EB050306434CEA95
:10072000010C49084FEA300092185B4150EA01077A
:10073000EDD152EA030012D082EA040083EA0501F7
:10074000084305D0101BAB4106D20122002306E06E
:1007500000224FF0004302E06FF0010253101AEB49
:1007600006004CEB085110EB0A0041EB0B01BDE811
:10077000F04DFFF78DBE0000064C074D06E0E06827
:1007800040F0010394E8070098471034AC42F6D3D8
:10079000FFF706FDA0750008C0750008202A06DBDB
:1007A000CB17203A41FA02F043EAE07306E041FA3F
:1007B00002F3D040C2F1200291400843194670472D
:1007C0002DE9F04D00231A461B1A8A4103DB002055
:1007D0000146BDE8F08DC1F30A52C1F3130141F4A3
:1007E00080154FF0000BD10702D100186D41521E49
:1007F0000027044640F2FF11384601EB620A3E46EC
:100800008046024600204FF48011FFF7FAFDC2191E
:100810007141BB1846EB0100B4EB030C75EB000C07
:1008200004D3E41A65EB000517460E46241908F1B7
:1008300001006D4180463428E3DDF91946EB0600DE
:10084000091BA84103D24FF0FF32134601E00022FA
:1008500013461BEB070046EB0A51BDE8F04DFFF7CE
:1008600017BEFEE7014800F057B80000080200205C
:1008700001681823CAB2103AB2FBF3F2054B6FF3CA
:100880000901032A9B5CC36500D9091D81650846DF
:1008900070470000DC73000810B5014600208B692A
:1008A0008A6A4FF0C07453B1B3F5005F15D072B1CE
:1008B000012A0CD0022A0AD0032A09D104E01AB175
:1008C000012A06D0022A03D1C96AC90100D5012034
:1008D00010BDC96AA142FAD010BD002AF7D0012A82
:1008E000F2D0022AF3D0032AF3D010BD704772B6BB
:1008F000FEE790F83510022903D0802141650120E0
:100900007047052180F835100068016821F0010169
:1009100001600020704700002DE9F84304464FF0C5
:100920000009CDF8009063484FF41651A56D00689A
:10093000B0FBF1F72E6894F85C10082000FA01F182
:1009400031420FD021680A6852070BD50A6822F09D
:1009500004020A6094F85C108840A860606D40F062
:100960000100606594F85C104FF0010808FA01F08E
:10097000304208D021684969090604D5A860606D35
:1009800040F00200606594F85C100420884030421A
:1009900008D021680968890704D5A860606D40F017
:1009A0000400606594F85C1010208840304218D034
:1009B00021680968090714D5A860206801684903FF
:1009C00004D50068000308D5A16C07E00168C905DB
:1009D00003D4016821F008010160216C09B12046AF
:1009E000884794F85C1020208840304231D021683C
:1009F0000968C9062DD5A86094F835000528206837
:100A0000016806D0490347D5006800031DD4616C16
:100A10001CE021F0160101602068416921F080018D
:100A20004161206C08B9A06C20B12068016821F0F8
:100A30000801016094F85C103F208840A86084F8A9
:100A4000349084F83580216D1FE0E16B09B12046B8
:100A50008847606D00282BD0606DC00714D005203A
:100A600084F835002068016821F0010101600098D8
:100A7000401C0090B84203D820680068C007F6D137
:100A800084F8349084F83580E16C002910D001B0EE
:100A90002046BDE8F04308470168C905D5D4016880
:100AA00021F01001016084F8349084F83580CCE79F
:100AB000BDE8F883540000202DE9F041044600F021
:100AC0004BF906465CB1002584F83450022084F8C6
:100AD00035002068016821F0010101600DE001206E
:100AE000BDE8F08100F038F9801B052805D92020E9
:100AF0006065032084F83500F2E720680068C007CD
:100B0000F0D12268116820480140D4E9010318435C
:100B1000D4E903363343184363691843A369184380
:100B2000E3691843236A18430843616A042903D11F
:100B3000D4E90B1319430843106020684069666AC2
:100B400020F0070130460E43012704280CD1A06A8B
:100B50000643E06A40B12046FFF79EFE20B14020E8
:100B6000606584F83570BAE7206846612046FFF773
:100B70007FFE94F85C203F2191408160656584F898
:100B800035700020ACE700003F8010F070B50446DF
:100B900000F0E2F80546601C02D0044800780444E6
:100BA00000F0DAF8401BA042FAD370BD48000020E4
:100BB0002DE9F84F00224FF0010803254FF00F0EEA
:100BC0000B6808FA02F42340A34271D14E68012E4B
:100BD00005D0022E03D0112E01D0122E15D1866819
:100BE000570005FA07FC26EA0C06D1F80CC00CFAEF
:100BF00007FC4CEA060CC0F808C04668A6430C790E
:100C0000C4F30014944034434460C668570005FAA6
:100C100007FC8C6826EA0C06BC403443C4604C6870
:100C2000022C01D0122C13D1D40800EB8404A3466B
:100C3000D4F8209054074FEAD46A0EFA0AF629EA4B
:100C400006090E6906FA0AF646EA0906CBF820609C
:100C500004680E7924EA0C0406F00306BE4026431D
:100C600006604C68E40056D52E4C266846F4804653
:100C70002660246822F0030604F4804400942A4C81
:100C80003444A446D4F808489607370F0EFA07F6FE
:100C9000B443264EB04201D1002615E0244EB042A6
:100CA00001D1012610E0234EB04202D102260BE012
:100CB00031E0214EB04201D1032605E01F4EB04283
:100CC00001D1042600E00726BE402643CCF8086880
:100CD0001B4E34684F689C43FF0300D51C433460AF
:100CE000174E361D34684F689C43BF0300D51C4324
:100CF0003460134E083634684F689C43FF0200D5B9
:100D00001C4334600E4E0C3634684F689C43BF025F
:100D100000D51C433460521C102AFFF451AFBDE8CB
:100D2000F88F0000443802400030014000000240CB
:100D30000004024000080240000C02400010024083
:100D4000003C01400069084000D0012070470AB112
:100D5000816170470904FBE7014880687047000023
:100D60004800002002488168027811448160704781
:100D7000480000200B4810B5016841F40071016083
:100D8000016841F480610160016841F48071016093
:100D9000032000F06FF8002000F006F800F024F8BF
:100DA000002010BD003C024070B50D4D04464FF4CC
:100DB0007A712878B1FBF0F00A490968B1FBF0F0CC
:100DC00000F039FD48B9102C07D200222146501EF0
:100DD00000F030F800206C6070BD012070BD000094
:100DE00048000020540000200A4808B5016841F47A
:100DF00080410160006800F4804000900548001FB9
:100E0000016841F080510160006800F0805000905E
:100E100008BD000044380240002809DB00F01F0232
:100E2000012191404009800000F1E020C0F800114C
:100E300070470000F0B40E4B1B680C46C3F302234E
:100E4000C3F10705042D00D90425191D072901D276
:100E5000002300E0DB1E012606FA05F1491E2140B1
:100E600099409E40761E16403143F0BC02F098B97E
:100E70000CED00E0064900F0070208684FF6FF039A
:100E8000184040EA0220034A1043086070470000FF
:100E90000CED00E00000FA052DE9F0470E460500D4
:100EA00065D0DFF81481D8F80000F7B200F00F0029
:100EB000B04207D288F80070D8F8000000F00F00A8
:100EC000B04254D128683D4C810712D5400703D564
:100ED000206840F4E05020602878000703D520689F
:100EE00040F4604020602068A96820F0F0000843CA
:100EF00020602878C0072DD030496868083901285B
:100F000012D0022813D0032811D0096889070029BC
:100F10002DDA216821F0030101432160FFF71CFF56
:100F2000814641F2883A0EE009688903EFE70968D3
:100F30008901ECE7FFF710FFA0EB0901514502D949
:100F40000320BDE8F0872068696800F00C00B0EB72
:100F5000810FEFD1D8F80010404601F00F01B142E7
:100F600007D90770006800F00F00B04201D00120DF
:100F7000E7E72878400705D52068E96820F4E050C5
:100F8000084320602878000706D52068296920F4E6
:100F9000604040EAC100206000F038F82168084A4B
:100FA000C1F30311515CC840064908600648006857
:100FB000FFF7FAFE0020C4E7003C02400838024078
:100FC000E4730008540000204C0000200448054948
:100FD00000680968044AC1F38221515CC840704727
:100FE0005400002008380240F47300080448054902
:100FF00000680968044AC1F34231515CC840704737
:101000005400002008380240F4730008154810B559
:10101000006810F00C02144813D04110042A0FD0BD
:10102000082A0ED10F4C241F2268236802F03F02C9
:101030005B0207D52068C0F38810A0FB010106E021
:10104000084610BD2168C1F38811A1FB00010023EF
:10105000FFF7BEF82168C1F30141491C4900B0FB0C
:10106000F1F010BD083802400024F4002DE9F84FDB
:1010700004006ED02078DFF83C93C007A9F1040586
:101080004AD009F104000168C1F38101012908D0A7
:101090000068C0F3810002280AD1D9F8000040029C
:1010A00006D52868800337D560680028E1D033E092
:1010B0006068B0F5803F10D0B0F5A02F286810D040
:1010C00020F480302860286820F480202860606840
:1010D000A8B1FFF741FE06460DE0286840F48030D5
:1010E000F4E740F480202860F7E700BFFFF734FE04
:1010F000801B642873D828688003F7D50CE0FFF7BD
:101100002BFE064605E000BFFFF726FE801B642885
:10111000F0D828688003F7D42078DFF89C82800715
:101120004FF0000A3ED5A348001D016811F00C0FD6
:1011300008D00068C0F3810002280BD1D9F8000064
:10114000400207D42868800716D5E068012800D13E
:1011500012E02BE1E068B8B10120C8F80000FFF709
:10116000FBFD064605E000BFFFF7F6FD801B0228E9
:10117000C0D828688007F7D52868216920F0F800D2
:1011800040EAC10028600DE0C8F800A0FFF7E4FDC8
:10119000064604E0FFF7E0FD801B02281FD8286800
:1011A0008007F7D42078000722D5824E83486169F2
:1011B000703671B101210160FFF7CEFD074604E0F2
:1011C000FFF7CAFDC01B022809D830688007F7D591
:1011D0000EE0C0F800A0FFF7BFFD074605E082E083
:1011E000FFF7BAFDC01B02287DD830688007F7D40E
:1011F0002078400768D5DFF8BCB100270BF13C0B25
:10120000DBF80000C0000BD4DBF8001041F0805187
:10121000CBF80010DBF80000012700F080500090B0
:10122000674E3068C00510D4306840F4807030607C
:10123000FFF792FD009005E0FFF78EFD0099401A40
:10124000022850D83068C005F6D55A4EA0686C36D2
:1012500001280FD00528306810D020F00100306040
:10126000306820F004003060A068B8B1FFF774FD6A
:1012700000900FE0306840F00100F4E740F0040017
:101280003060F7E7FFF768FD0099411A41F28830B6
:10129000814266D830688007F4D50EE0FFF75CFD28
:1012A000009007E0FFF758FD0099411A41F288309D
:1012B000814256D830688007F4D42FB1DBF8001093
:1012C00021F08051CBF80010A069C8B33949091D3D
:1012D0000968C1F3810102294AD00228504607D08B
:1012E000C8F8600000E03CE0FFF736FD04463BE054
:1012F0004746C8F86000FFF72FFD064605E000BF2F
:10130000FFF72AFD801B02282BD828688001F7D41C
:10131000D4E907010843A16A2A4A490802EB0141BE
:10132000626A41EA8211084394F82C1040EA016194
:10133000C9F8001001203866FFF70EFD044606E0EC
:1013400036E000BFFFF708FD001B022809D8286817
:101350008001F7D52CE000BFFFF7FEFC001B022840
:1013600002D90320BDE8F88F28688001F4D41FE07B
:101370000128F7D0D9F80000E26900F48001914219
:1013800014D1226A00F03F0191420FD147F6C0719B
:10139000626A0140914209D1A26A00F4403191424F
:1013A00004D1E16A00F07060884201D00120D9E7E1
:1013B0000020D7E70438024000004742800E474231
:1013C000007000400000FFFF70B5040005D000254C
:1013D000A56294F8510010B106E0012070BD84F8B8
:1013E0005050204600F030F8022084F85100206868
:1013F000016821F040010160D4E901010843D4E90A
:1014000003121143084361690843218B01F4007101
:101410000843E1690843216A0843A16A0843216837
:101420000860A069042101EA1040616A084321684C
:1014300048602068C16921F40061C16165650120CF
:1014400084F85100002070BD70B586B004461421A8
:101450006846FEF707FF234E226800212248022338
:1014600003240525B2421AD11F4A1432166846F4E5
:1014700080561660126802F480520592026842F0AB
:1014800001020260006802AA00F00100059082E8F3
:101490003200E020CDE90003694614481DE0144EF7
:1014A000B2421CD1104A1032166846F480461660CB
:1014B000126802F480420592026842F00202026061
:1014C000006802AA00F00200059082E832004FF4A2
:1014D0002040CDE9000369460648FFF769FB06B0E6
:1014E00070BD000000300140303802400000024072
:1014F00000380040000402402DE9F84F044690F8FF
:10150000500000271D461646894601280DD04FF091
:10151000010B84F850B0FFF71FFC804694F851008F
:10152000BA46012804D002278EE00220BDE8F88FD9
:10153000B9F1000F7DD0002E7BD0032084F851003C
:10154000C4F854A0C4F83090A686E686C4F838A043
:10155000A4F83CA0A4F83EA0C4F844A0C4F840A05D
:10156000A068B0F5004F04D12068016841F48041C3
:10157000016020680168490603D4016841F0400118
:101580000160E068B0F5006F606803D030B3012EF1
:1015900024D040E008B1012E1CD1206B21680088C6
:1015A000C86006E020688168890709D5216B098831
:1015B000C160206B801C2063E08E401EE08609E045
:1015C000FFF7CAFBA0EB0800A84202D3681C01D0B9
:1015D00031E07DB3E08E0028E4D11FE0206B21686C
:1015E0000078087306E020688168890709D5216BB7
:1015F00009780173206B401C2063E08E401EE0865A
:1016000009E0FFF7A9FBA0EB0800A84202D3681C81
:1016100001D010E075B1E08E0028E4D142462946A1
:10162000204601F017FA08B120206065A06820B1BB
:1016300007E008E0FFE7032706E02068C16880684C
:101640000090606D00B1012784F851B084F850A07B
:1016500038466BE72DE9F84F044690F85000002714
:101660000A9E1D4692468B464FF0010901280ED076
:10167000012084F85000FFF76FFB804694F851007A
:10168000616801280CD0B1F5827F07D102E0022009
:10169000BDE8F88FA16809B9042801D00227C2E08B
:1016A000BBF1000F27D0BAF1000F24D01DB394F87E
:1016B0005100042802D0052084F851000020606504
:1016C000C4F838A0E587A587C4F830B0E586A586BC
:1016D0002064606420680168490603D4016841F011
:1016E00040010160E068B0F5006F606805D0E8B3C4
:1016F000012D46D07FE0012795E008B1012D39D1B9
:10170000206B21680088C860206B801C2063E08EFD
:10171000401EE0862EE02068816889070FD5E18EA3
:1017200069B1B9F1010F0AD1216B0988C160206B41
:10173000801C2063E08E401EE0864FF00009206888
:101740008168C9070CD0E18F51B1C068A16B0880D6
:10175000A06B801CA063E08F401EE0874FF0010962
:10176000FFF7FAFAA0EB0800B04200E009E001D36D
:10177000701C50D1E08E0028CDD1E08F0028CAD156
:101780003FE0206B216800780873206B401C2063C9
:10179000E08E401EE0862EE02068816889070FD524
:1017A000E18E69B1B9F1010F0AD1216B097801739A
:1017B000206B401C2063E08E401EE0864FF0000945
:1017C00020688168C9070CD0E18F51B1C068A16B56
:1017D0000870A06B401CA063E08F401EE0874FF0B4
:1017E0000109FFF7B9FAA0EB0800B04202D3701C60
:1017F00001D010E07EB1E08E0028CDD1E08F00282E
:10180000CAD142463146204601F024F928B10127C9
:101810002020606507E0032705E0A06818B920686C
:10182000C16880680090012084F85100002084F88D
:10183000500038462CE710B5401EB0F1807F01D330
:10184000012010BD4FF0E02460610F21601701F00E
:10185000A7FC0020A06107202061002010BD00002F
:1018600070B590F83C20012A2CD0012480F83C402F
:10187000022280F83D2003685A689D6822F07006B5
:101880000A6832435A60104B02689A420ED0B2F195
:10189000804F0BD00D4B9A4208D00D4B9A4205D089
:1018A0000C4B9A4202D00C4B9A4204D1496825F065
:1018B00080031943916080F83D40002180F83C107E
:1018C000084670BD022070BD0000014000040040C9
:1018D00000080040000C00400040014010B586B0F8
:1018E000044614216846FEF7BDFC2068B0F1804F25
:1018F00015D10C480021026842F001020260006824
:1019000000F001000590082000900220CDE90101BF
:101910000120CDE9031069460348FFF749F906B0F5
:1019200010BD0000303802400000024070B504468F
:1019300090F83C000D4601280DD0012684F83C604B
:10194000022084F83D0042B1042A18D0082A2AD087
:101950000C2A4DD139E0022070BD206801F0A2F9B7
:101960002068816941F0080181612068816921F066
:1019700004018161206881692A69114311E02068AE
:1019800001F0B8F92068816941F400618161206843
:10199000816921F480618161206881692A6941EA55
:1019A0000221816124E0206801F0D0F92068C1693A
:1019B00041F00801C1612068C16921F00401C161E1
:1019C0002068C1692A69114311E0206801F0EAF931
:1019D0002068C16941F40061C1612068C16921F4D6
:1019E0008061C1612068C1692A6941EA0221C1613F
:1019F00084F83D60002084F83C0070BD10B5040000
:101A000003D094F83D0010B107E0012010BD002084
:101A100084F83C00204600F00DF8022084F83D00D8
:101A2000211D206801F0F2F8012084F83D0000201B
:101A300010BD000008B50068B0F1804F08D105481E
:101A4000016841F001010160006800F001000090B0
:101A500008BD0000403802407047000070B50268C1
:101A600004461068D168536910F00F0F52D003F08C
:101A7000010501F490762E435FD0C20705D0CA0558
:101A800003D5E26B42F00102E263420705D5DA07B3
:101A900003D0E26B42F00202E263820705D5DA0767
:101AA00003D0E26B42F00402E263020707D501F0C3
:101AB00020022A4303D0E26B42F00802E263E26BA9
:101AC000002A33D0800604D5880602D5204601F0CE
:101AD000A1F920684069E16BC0F38010090700D4C8
:101AE00028B3204601F088F92068416949061AD5D3
:101AF000416921F040014161606BA0B11B49016562
:101B0000606BFEF7F6FE002810D0606B016DBDE83B
:101B100070400847830610D58B060ED52046BDE8D9
:101B2000704001F077B92046FFF796FF70BD204660
:101B3000FFF792FF0020E06370BD030606D50B0699
:101B400004D52046BDE8704001F044BA4006F3D504
:101B50004806F1D5D168204621F04001D16020210E
:101B600084F8391000F0EEF870BD0000E92D00088F
:101B700070B5040004D094F83900002510B106E0D7
:101B8000012070BD84F83850204600F023F824204E
:101B900084F839002068C16821F40051C1602046F2
:101BA00001F084F92068016921F490410161206805
:101BB000416921F02A0141612068C16841F4005166
:101BC000C160E563202084F8390084F83A000020E1
:101BD00070BD000070B586B0064614216846FEF759
:101BE00041FB24493068884241D1234800250168DF
:101BF00041F010010160006800F0100005901E48DF
:101C00001438016841F0010101600068694600F084
:101C1000010005904FF4C06000900220CDE901055D
:101C200003200390072004901448FEF7C1FF154CD1
:101C3000134820604FF00060C4E901054014C4E976
:101C4000035080106561C4E9065025622046656234
:101C5000FEF732FF08B1FEF74AFE74630022114618
:101C60002520A663FFF7E6F82520FFF7D5F806B094
:101C700070BD0000001001404438024000000240E6
:101C8000406402400802002070472DE9F8430446F2
:101C900090F839001F4616460D46202850D1B5B1A0
:101CA000AEB194F8380001284AD0012084F83800F9
:101CB0004FF00008C4F83C80212084F83900FFF779
:101CC0004BF8A6848146E68484F8388026E001201B
:101CD000BDE8F883E08C401EE084A0684B46B0F578
:101CE000805F4FF000024FF080012046009703D044
:101CF00001F0A1F9E8B90DE001F09DF9C8B9288813
:101D00002168C0F308004860206908B16D1C05E037
:101D1000AD1C03E0216815F8010B4860E08C002839
:101D2000D8D14B46002240212046009701F083F98C
:101D300008B10320CCE7202084F839000020C7E751
:101D40000220C5E77047FEE710B50F4C0022802146
:101D50002046FEF7FCFF00F019F801224021204642
:101D6000FEF7F5FF00F012F8002240212046FEF7B2
:101D7000EEFF00F00BF8012280212046FEF7E7FF7E
:101D8000BDE8104000F002B8000402404FF4827039
:101D9000401E80B2FCD27047154810B5016886B06D
:101DA00041F004010160016801F00401059101683E
:101DB00041F00101016000680E4C00F00100059047
:101DC000402000900120019002900220039069467B
:101DD0002046FEF7EDFE112001908020009069461C
:101DE0002046FEF7E5FE00F099F806B010BD0000B1
:101DF000303802400004024010B50C4C0122802112
:101E00002046FEF7A4FFFFF7C1FF01224021204634
:101E1000FEF79DFFFFF7BAFF002240212046FEF7A4
:101E200096FFBDE81040FFF7B1BF0000000402407C
:101E30002DE9F0410024134E074625466006040EA6
:101E4000012240213046FEF782FFFFF79FFF8021ED
:101E50003046FEF777FF08B1641CE4B2002240214F
:101E60003046FEF774FFFFF791FF6D1CEDB2082DB1
:101E7000E4D327B1FFF768FF2046BDE8F081FFF704
:101E8000BBFFF9E70004024070B5134E054600247D
:101E9000280601D5012200E0002280213046FEF70D
:101EA00056FFFFF773FF012240213046FEF74FFF38
:101EB000FFF76CFF002240213046FEF748FF68061E
:101EC000641C050EE4B2082CE2D33046BDE8704035
:101ED00001228021FEF73BBF0004024010B50E4CEA
:101EE000012280212046FEF732FF012240212046B8
:101EF000FEF72DFFFFF74AFF002280212046FEF764
:101F000026FFFFF743FF002240212046FEF71FFF78
:101F1000BDE81040FFF73ABF0004024010B50C4C7A
:101F2000002280212046FEF712FFFFF72FFF01223B
:101F300040212046FEF70BFFFFF728FF01228021FA
:101F40002046FEF704FFBDE81040FFF71FBF00006A
:101F50000004024070B5144E002425460122802161
:101F60003046FEF7F4FEFFF711FF01224021304614
:101F7000FEF7EDFEFFF70AFF07E0641CE4B2FA2C5F
:101F800003D9FFF7CBFF012505E080213046FEF79E
:101F9000D9FE0028F1D1002240213046FEF7D7FEBD
:101FA000FFF7F4FE284670BD000402407CB50646EB
:101FB0000B4814460D466B4606223B21007800F084
:101FC000B7F800280BD1BDF8001049BA3180BDF830
:101FD000021049BA2980BDF8041049BA21807CBD9D
:101FE0000C0000207CB506460B4814460D466B4697
:101FF00006224321007800F09BF800280BD1BDF8A1
:10200000001049BA3180BDF8021049BA2980BDF8E4
:10201000041049BA21807CBD0C00002008B510488E
:102020006B4602224121007800F082F8BDF80000E2
:102030009FED0C1A40BA00B200EE100AF8EEC00A8A
:1020400080EE810ADFED080A30EE200ADFED070A94
:1020500020EE200ABDEEC00A10EE100A00B208BD44
:102060000C0000200000AA43B81E12420000C84223
:1020700010B5FFF791FE80216B2000F0C9F86420B5
:10208000FEF784FD00216B2000F0C2F8032000F071
:102090008AF8002000F082F8322000F0A1F8002138
:1020A000382000F0B5F800216A2000F0B1F80021D6
:1020B000232000F0ADF88021372000F0A9F875202A
:1020C00000F010F868280BD101216B2000F0A0F877
:1020D00000216C2000F09CF8322000F081F80020F4
:1020E00010BD000070B50546FFF7F8FE0F4C2078D4
:1020F0004006000EFFF7C8FEFFF72CFF2846FFF74B
:10210000C3FEFFF727FFFFF7E9FE2078012101EB6F
:102110004000C0B2FFF7B8FEFFF71CFF0020FFF73A
:1021200087FE0446FFF7FAFE204670BD0C00002033
:102130002DE9F0411D4614460F460646FFF7CEFE38
:102140007006000EFFF7A0FEFFF704FF20B1FFF7B7
:10215000E5FE0120BDE8F0813846FFF795FEFFF768
:10216000F9FEFFF7BBFE012000EB4600C0B2FFF70F
:102170008BFEFFF7EFFE09E0012C0DD05FF00100B0
:10218000FFF756FE641E05F8010BE4B2002CF3D1F4
:10219000FFF7C4FE0020DDE70020F1E7C006010ED6
:1021A0001C2000F035B8C006010E1B2000F030B82E
:1021B000BC2801D3012110E0622801D302210CE0E8
:1021C0002A2801D3032108E0142801D3042104E0C4
:1021D0000A2801D3052100E006211A2000F018B8D2
:1021E00010B504464FF47A70844201D9044602E0E7
:1021F000042C00D20424B0FBF4F0401EC1B219201C
:1022000000F006F86008BDE81040FFF7D1BF0000FD
:1022100070B50C460546FFF761FE0E480078400693
:10222000000EFFF731FEFFF795FE50B92846FFF785
:102230002BFEFFF78FFE2046FFF726FEFFF78AFEF4
:1022400018B1FFF76BFE012070BDFFF767FE00209D
:1022500070BD00000C0000202DE9F0411E4615461F
:102260000F460446FFF73AFE6006000EFFF70CFE2D
:10227000FFF770FE60B93846FFF706FEFFF76AFE0B
:1022800000240CE0305DFFF7FFFDFFF763FE20B197
:10229000FFF744FE0120BDE8F081641CE4B2AC42CB
:1022A000F0D3FFF73BFE0020F5E70000094808B532
:1022B000016841F4800101600068002200F48000A0
:1022C000009011463A20FEF7B5FDBDE808403A20DF
:1022D000FEF7A2BD303802402DE9F04186B014214E
:1022E0006846FDF7BFFF35480026016841F004014C
:1022F0000160016801F004010591016841F080016D
:102300000160016801F080010591016841F001015F
:102310000160016801F001010591016841F00201CD
:1023200001600068264F00F0020005900122102194
:102330003846FEF70CFDDFF88C80012241F2DF0108
:102340004046FEF704FD4FF4005000901E48012463
:10235000CDE9010469461D48FEF72AFC032510203B
:1023600003958DE8510069463846FEF721FC41F29D
:102370001F0003958DE8510069464046FEF718FCA2
:102380002002CDE90006694602943846FEF710FCAB
:102390004020CDE9000469464046CDE90245FEF7FC
:1023A00007FC8020009001AA112082E831006946D4
:1023B0004046FEF7FDFB06B0BDE8F0813038024034
:1023C000000002400004024000001110000802401A
:1023D000104810B50E4901604FF482714160002130
:1023E00002228160C0E9031201224261520282612D
:1023F0000822C0E90721416281620A21C162FEF719
:10240000E3FF002803D0BDE81040FEF770BA10BD0E
:1024100000300140D80000200F4810B50D49016080
:102420004FF48271416000218160C1604FF40072FD
:102430000161C0E90512C1610162416281620A2144
:10244000C162FEF7C1FF002803D0BDE81040FEF7CF
:102450004EBA10BD003800403001002010B58AB0DF
:10246000002407941C2168460894FDF7FBFE1648DB
:102470004FF0804101600A21C0E901144FF47A71E4
:10248000C0E903148461FFF7B9FA08B1FEF72FFA27
:10249000079407A90C480894FFF7E2F908B1FEF782
:1024A00026FA6020CDE9000402940C226946064811
:1024B0000494FFF73BFA08B1FEF719FA0248FFF758
:1024C0000DFA0AB010BD0000880100200C4810B5BC
:1024D0000A4901604FF4E1314160002181600C2222
:1024E000C160C0E904128161C161FFF741FB0028AE
:1024F00003D0BDE81040FEF7FAB910BD001001404E
:10250000C8010020FEE7FEE730B400220B4C134662
:102510005FF0000101EB410504EB4515491C89B250
:10252000AB54FF29F6D9521C92B2602AF0D300288E
:1025300002D030BC00F0C4B830BC70476802002044
:1025400010B5134CA389184483B2E089FF2B0844CB
:1025500080B213D8B0F5407F10D2A4F5C041012459
:10256000002A03EB430201EB421108D001EBD00239
:1025700000F00700117884402143117010BD01EB79
:10258000D00100F007000A788440A2430A7010BD11
:1025900068620020484810B54021418080210180B8
:1025A0000021018141818181C181022202710C22BD
:1025B00042718171414C012204212046FEF7C7FB84
:1025C000012211462046FEF7C2FB002202212046CE
:1025D000FEF7BDFB6420FEF7D9FA01220221204656
:1025E000FEF7B5FB0021AE2000F0E0F90021D52078
:1025F00000F0DCF90021502000F0D8F90021A820DB
:1026000000F0D4F900213F2000F0D0F90021D320C0
:1026100000F0CCF90021084600F0C8F90021402064
:1026200000F0C4F900218D2000F0C0F90021142031
:1026300000F0BCF90021202000F0B8F900210220B0
:1026400000F0B4F90021A12000F0B0F90021C82069
:1026500000F0ACF90021DA2000F0A8F900211220E6
:1026600000F0A4F90021812000F0A0F90021EF2062
:1026700000F09CF90021D92000F098F90021F12008
:1026800000F094F90021DB2000F090F900213020C7
:1026900000F08CF90021A42000F088F90021A62088
:1026A00000F084F90021AF2000F080F9BDE810406F
:1026B0000020FFF729BF00006862002000040240EC
:1026C0002DE9F041334E00244FF06008A6F5C047D5
:1026D00004F1B000C0B2002100F068F90021084602
:1026E00000F064F90021102000F060F90025B079B5
:1026F000002870890CD02844C0B200EB40007189DA
:1027000007EB40102944090A04EBC101405C28E0B2
:102710004007708904EBD0014046B1FBF0F22DD0A8
:1027200000FB121132892A44D2B202EB420207EBBB
:102730004212525C718904EBD101491CB1FBF0F3E8
:1027400008FB131031892944C9B201EB410107EBA1
:102750004111085C718942EA002001F00701C8407C
:10276000C0B2012100F022F96D1CADB2802DBED3A4
:10277000641CA4B2082CABD3BDE8F08108FB121096
:1027800031892944C9B201EB410107EB4111085CD1
:10279000E7E70000686200202DE9FF4F1D460C4668
:1027A0008946580700D0012000EBD500690810FBCE
:1027B00001FA203AD0B20026029037E00C2D0ED05C
:1027C000102D35D11B49029801EB00104FF0000885
:1027D000875D4FF6FF7B380608D50D9A09E0029811
:1027E000154900EB400001EB8000EFE70D9890B138
:1027F000002221460098FFF7A3FE641CA4B2A4EBBC
:1028000009000BEA4707A84207D100984C46401C34
:1028100080B2009008E00122EBE708F101001FFA06
:1028200080F8B8F1080FD6D3761CB6B25645C5D39A
:10283000BDE8FF8FE45B0008705700082DE9FF5FDB
:102840001746DDF838800D468A465FEA487001D0A9
:10285000012100E0002101EBD800584300F0FF0BFC
:10286000102B4ED1B8F1100F4BD127480024066829
:102870000DE000BF16F814003978884205D106EB48
:10288000440079784078884207D0641CA4B230466E
:10289000FDF7F3FCB4EB500FECD33046FDF7EDFC45
:1028A000B4EB500F2DD2002629E018484FF0000954
:1028B00000EB4410875D380601D50F9A02E00F98AF
:1028C00090B1002229460098FFF73AFE6D1C780669
:1028D000ADB2070EA5EB0A01414507D10098554658
:1028E000401C80B2009008E00122EBE709F10100F2
:1028F00000F0FF09B9F1080FDDD3761CF6B25E4592
:10290000D3D3BDE8FF9F000004000020D46100087D
:102910002DE9FC47044680461078DDF828A01E46C5
:1029200017460D4600281FD0A81B00F540793A78BD
:10293000802A1BD9A8EB060000F58070A04203DABC
:10294000A819801C85B24446A9450DDBCDE9006A73
:1029500033463A4629462046FFF770FFA01984B255
:1029600017F8020F0028E2D1BDE8FC87A8EB56005B
:1029700000F58070A04202DAA81985B24446A94544
:10298000F2DB0D2A0CD0334629462046CDF800A0B4
:10299000FFF702FF04EB560084B217F8010FE1E7DE
:1029A000A81985B244467F1CF4E7000038B5114DE4
:1029B000044609B1012200E0002201212846FEF769
:1029C000C6F9002204212846FEF7C1F98DF800401F
:1029D000FF23012269460848FEF78EFD01220421EB
:1029E0002846FEF7B4F9012211462846FEF7AFF952
:1029F00038BD000000040240300100207047000094
:102A000001B582B04FF47A700090012301AA02A9A7
:102A10000248FEF71FFE9DF804000EBDD8000020FE
:102A20000B4910B50A68136823F0400313600A6865
:102A300013684FF6C774234013600A681368034392
:102A400013600868016841F04001016010BD00009A
:102A5000D800002038B504461248134B0068B0FB7C
:102A6000F3F04FF47A73584300906068B0F5827FBA
:102A70000DD10B46009200228021204600F016F86E
:102A800070B1606D40F020006065032038BD009893
:102A900030B1401E009020688068C0430006F6D523
:102AA000002038BD5400002000366E012DE9F041B1
:102AB0001D4617460E460446DDF8188008E0681CDF
:102AC00006D0FEF749F9A0EB0800A8420BD255B199
:102AD0002068806836EA000030D00020B842EED18D
:102AE0000020BDE8F0812068416821F0E0014160EC
:102AF0006068B0F5827F0BD1A068B0F5004F02D0BE
:102B0000B0F5806F04D12068016821F040010160B8
:102B1000A06AB0F5005F09D12068016821F4005176
:102B200001602068016841F400510160012084F8CF
:102B30005100002084F850000320D2E70120CDE7A7
:102B4000704700000449012804D0022801D16920FF
:102B5000087070476820FBE70C000020FEF702B900
:102B600030B593B030216846FDF77CFB14210CA8EA
:102B7000FDF778FB1C480025016841F08051016099
:102B8000006800F0805011901848016841F44041FD
:102B900001600068022400F4404011900120009080
:102BA000000401908001CDE9064008AA04206421B8
:102BB00082E813000B906846FEF758FA08B172B627
:102BC000FEE70CA90F2081E831004FF48050CDE9D9
:102BD0000F0503210CA8FEF75FF9002801D072B69B
:102BE000FEE713B030BD00004038024000700040E6
:102BF0000548016841F47001016003494FF000602D
:102C0000803908607047000088ED00E0F0B5026888
:102C10001D4B1E4C9F031E4D1E4E984207D0B842BE
:102C200005D0A04203D0A84201D0B04204D122F086
:102C3000700C4A6842EA0C02984210D0B8420ED09A
:102C4000A0420CD0A8420AD0B04208D0124CA042F8
:102C500005D0124CA04202D0114CA04203D122F464
:102C60004074CA6822434C6922F080022243026009
:102C70008A68C2620A688262984201D10969016366
:102C800001214161F0BD000000000140000400404E
:102C900000080040000C004000400140004401409A
:102CA0000048014030B5026A22F001020262026A65
:102CB0004368846924F073050C682C4322F00205F4
:102CC0008A682A430A4DA8420BD122F00805CA6837
:102CD00023F440732A434D6922F004021D438B699B
:102CE0002B434360846149684163026230BD000048
:102CF0000000014030B5026A22F010020262026A4E
:102D0000436884690D6824F4E64444EA05248D6828
:102D100022F0200242EA05120B4DA8420ED1CD68E6
:102D200022F0800242EA05124D6923F4406343EA2F
:102D300085038D6922F0400243EA85034360846184
:102D400049688163026230BD0000014030B5026A0B
:102D500022F480720262036A4268C46923F4007339
:102D600024F073050C682C438D6843EA05230C4D51
:102D7000A8420ED1CD6823F4006343EA05234D69D0
:102D800022F4405242EA05128D6923F4806342EA3C
:102D900005124260C4614968C163036230BD00002E
:102DA0000000014030B5026A22F480520262046AD7
:102DB0004268C3690D6823F4E64343EA05238D683E
:102DC00024F4005444EA0534064DA84204D14D6968
:102DD00022F4804242EA85124260C361496801647C
:102DE000046230BD0000014010B5806B0021C18538
:102DF000C184FEF731FE10BD0168CA6822F49072EA
:102E0000CA6001684A6922F001024A61202180F803
:102E10003A10704710B590F83A10222901D00220DC
:102E200010BD8168B1F5805F11D00169002901688A
:102E30001FD0496801F07F03816A4A1C82620B70CF
:102E4000C18D491E0904090CC18518D02BE0026907
:102E5000816A002A0268526805D0D2B20A80816A6B
:102E6000491C8162ECE7C2F308020A80816A891C6E
:102E7000F7E74A68816A4B1C83620A70E0E70168E1
:102E8000CA6822F02002CA600168CA6822F480720F
:102E9000CA6001684A6922F001024A61202180F873
:102EA0003A10FEF7F1FE002010BD00002DE9F041C0
:102EB000044600680169E26821F440511143016150
:102EC0002169A068E26908436169114308432168E8
:102ED000CA6849F20C639A430243CA602068416998
:102EE000A26921F4407111434161E0691927642509
:102EF0003226B0F5004F354A354920684FF00008BA
:102F000006D0884201D0904236D1FEF76FF835E006
:102F1000884201D0904202D1FEF768F801E0FEF746
:102F200055F861684A18A0FB070148EB0803FDF754
:102F30004FF90146B0FBF5F00201B1FBF5F06FF07F
:102F40001803584301EB800006EBC000B0FBF5F01E
:102F500000F0F80002EB4002B1FBF5F0584301EB42
:102F6000800006EBC000B0FBF5F000F00700216820
:102F700010448860BDE8F081FEF728F861688B0F87
:102F80008A00A0FB0701FDF723F90146B0FBF5F02D
:102F90006FF01802504301EB800006EB0010B0FB0D
:102FA000F5F000F0F002B1FBF5F002EB0012B1FB1E
:102FB000F5F06FF01803584301EB800006EB0010AA
:102FC000B0FBF5F000F00F00D1E700000014014065
:102FD0000010014090F83910212901D002207047DB
:102FE0008168B1F5805F016A0BD04A1C02620268F9
:102FF00009785160C18C491E0904090CC1840ED0A6
:1030000017E009880268C1F30801516001690029CD
:10301000016A02D0491C0162ECE7891CFBE70168E8
:10302000CA6822F08002CA600068C16841F04001AD
:10303000C160002070472DE9F041984617460E46C2
:103040000446069D1DE0681C1BD02DB1FDF784FED3
:10305000A0EB0800A84214D92068C16821F4D071FF
:10306000C1602068416921F001014161202084F89C
:10307000390084F83A00002084F838000320BDE8C5
:10308000F0812068006836EA000004D00020B842D1
:10309000D9D00020F3E70120F9E700000148FEF74E
:1030A000DDBC0000C8010020FEE7000070B5202054
:1030B000FFF7B6FC00F012F8074C4EF617752080AB
:1030C00006E000BF00F00AF82080C820FDF75EFD92
:1030D0002088A842F6D170BD0800002070B5114DBF
:1030E0000024224610212846FDF731FE9020FFF7EC
:1030F00087FC0020FFF784FC0020FFF781FC002004
:10310000FFF77EFCFF20FFF77BFC44EA0024FF2052
:10311000FFF776FC0443012210212846FDF717FE35
:10312000204670BD000002400FB4054B10B503A946
:10313000044A029800F01EFD10BC5DF814FB00006C
:10314000C5470008580000200FB4084B10B504A96B
:1031500002AA039800F00EFD044602A9002000F028
:103160003AFF204610BC5DF814FB0000D73F000872
:1031700003B401984100009850EAC12018BF042010
:103180004A0D18BF40F0010040F2FF72B2EB515FF0
:1031900008BF40F00200012808BF052002B07047B8
:1031A0000907090E002804DB00F1E02080F8001474
:1031B000704700F00F0000F1E02080F8141D704708
:1031C00070B5C1482DED020B2DED0E8B82B0119D17
:1031D00025F000449FEDBEDB9FEDBFEB84423EDB5C
:1031E000A4F140511098A1F17F6108430FD0BC4871
:1031F000844202DC28D1109830B39DED100B02B050
:10320000BDEC0E8B02B0BDE8704000F069BC9DEDD6
:10321000100B53EC1D2B51EC100BFDF742F89DEDFC
:10322000100B41EC180B53EC1E2B51EC100BFDF75F
:1032300038F853EC182BFDF788F941EC100B02B06D
:10324000BDEC0E8B02B070BD012000F08DFC02B011
:10325000BDEC0E8B02B0BDE8704000F055BCA1483B
:103260009FEDA18B844256DA9DED100BB4F1795F8E
:103270000ADA51EC100BFFF77BFF042808BF00F0BF
:1032800053FC9DED100BDAE753EC102B51EC100BB7
:10329000FDF707F841EC190B95480621B0EE490AF5
:1032A000F0EE690A784400F09FFB53EC192B51ECC7
:1032B000100BFCF7F6FF41EC1A0B8E48B0EE490AF2
:1032C000F0EE690A0421784400F08EFB53EC192BD0
:1032D00051EC100BFCF7E5FF53EC182BFDF735F91B
:1032E00041EC100B51EC1A0B53EC102BFDF7D4F9F9
:1032F000CDE900019DED000B53EC102B9DED100B63
:1033000051EC100BFCF7CDFF9DED101B53EC112B76
:10331000FDF71BF9D2E09DED100B51EC100B01F005
:1033200045FA53EC182BFDF7B4F99FED730BCDE97B
:10333000000153EC102B9DED000B51EC100BFCF732
:10334000B0FF41EC190B6E480621B0EE490AF0EED1
:10335000690A784400F048FB53EC192B51EC100B30
:10336000FCF79FFF41EC1B0B6648B0EE490AF0EEFC
:10337000690A0421784400F037FB53EC192B51EC17
:10338000100BFCF78EFF53EC182BFDF7DEF841EC29
:103390001C0B51EC190B02F0E9F841EC180B5A48E0
:1033A0009FED5BABA04222DC53EC1C2B51EC1B0BC2
:1033B000FDF772F9CDE900019DED000B51EC180B02
:1033C00053EC102BFCF76DFF53EC182BFDF7BDF8F9
:1033D00053EC1A2BFCF765FF53EC1D2BFDF756F948
:1033E00053EC1E2BFDF755F941EC100B5FE08DED12
:1033F000008B002000909DED000B51EC180B53EC5E
:10340000102BFDF7A2F89DED000B41EC1E0B53ECC9
:10341000102B51EC100BFCF744FF53EC192BFDF76C
:1034200038F953EC1E2BFDF737F941EC190B53EC2F
:103430001C2B51EC1B0BFDF72FF941EC1B0B53EC34
:103440001A2B51EC190BFCF72CFF53EC1D2BFDF73D
:1034500020F941EC190B53EC1A2B51EC180BFCF72B
:1034600020FF53EC1B2BFCF71CFF53EC192BFDF733
:103470000DF99DED000B41EC180B53EC1A2B51ECA0
:10348000100BFCF70EFF9FED249B53EC192BFDF75F
:1034900000F941EC100B51EC180B53EC102BFDF71D
:1034A000F5F853EC192BFDF7F4F841EC100B002D57
:1034B0003FF7C5AE51EC100B81F0004141EC100B11
:1034C000BDE60000000000000000F03F000000002A
:1034D000075C143326A6913C182D4454FB21F93F78
:1034E0000000F07F0000E03F000000000000F03F1F
:1034F0005841000066410000000000000000E03F6D
:10350000AA400000B84000003333EF3F0000000045
:103510000000000000000040182D4454FB21E93F4A
:1035200070B59B482DED020B2DED068B079D25F008
:103530000044A04218DC9748844202DC0AD1069875
:1035400040B19DED060BBDEC068B02B0BDE87040AE
:1035500000F0C6BA002DCCBF9FED8F0B9FED900BF6
:10356000BDEC068B02B070BD8F48A04215DD8F48C0
:10357000A042D8BF4FF0FF3458DD9DED060B51EC53
:10358000100BFFF7F5FD042808BF00F0CDFA9DED04
:10359000060BBDEC068B02B070BD9DED060B51EC29
:1035A000100B01F003F9CDE9060181489FED828BF4
:1035B000A0423CDD8248A0421FDD00249FED82AB8B
:1035C0009DED060B53EC1A2B51EC100BFCF7BDFFD5
:1035D0009DED060B41EC190B53EC1A2B51EC100B23
:1035E000FCF75FFE53EC182BFDF750F853EC192B4A
:1035F000FDF752F8CDE9060149E09DED060B0124E7
:1036000053EC182B51EC100BFCF79FFF9DED060BB4
:1036100041EC190B53EC182B51EC100BFDF736F85D
:1036200053EC192BFDF738F8CDE906012FE0684877
:10363000A0421FDD02249FED689B9DED060B53EC1D
:10364000192B51EC100BFCF72CFE53EC182BFCF74C
:103650007CFF9DED060B41EC180B53EC192B51EC44
:10366000100BFDF713F853EC182BFDF715F8CDE907
:1036700006010CE09DED060B032453EC102B9FED8F
:10368000580B51EC100BFDF707F8CDE906019DED45
:10369000060B53EC102B51EC100BFCF702FE41EC27
:1036A000180B53EC182BFCF7FCFD41EC190B4E48A2
:1036B0000621B0EE490AF0EE690A784400F094F968
:1036C00053EC182B51EC100BFCF7EBFD41EC180BF5
:1036D0004648B0EE490AF0EE690A0521784400F048
:1036E00083F953EC192B51EC100BFCF7DAFD41EC8C
:1036F000100B51EC180B53EC102B002C0EDAFCF7CE
:1037000024FF9DED061B53EC112BFCF7CAFD9DED2C
:10371000061B53EC112BFCF7BCFF35E0FCF715FF43
:103720009DED061B53EC112BFCF7BBFD41EC100B80
:103730002F48784400EBC40090ED001B51EC100BB7
:1037400053EC112BFCF7A2FF9DED061B53EC112B44
:10375000FCF79CFF41EC100B2648784400EBC400BA
:1037600090ED001B51EC100B53EC112BFCF791FF6B
:1037700041EC100B002DA2BFBDEC068B02B070BD5A
:1037800051EC100B81F0004141EC100B01E70000FF
:10379000000010440000F07F182D4454FB21F93F35
:1037A000182D4454FB21F9BF0000DC3F0000203EEF
:1037B0000000F33F00000000000000000000F03FA8
:1037C0000000E63F00000000000000000000004094
:1037D0000080034000000000000000000000F83FEF
:1037E000000000000000F0BFFA3D0000B03D000006
:1037F0003A3D0000F23C000070B56B4E2DED040B1D
:103800002DED028B82B0DDF81CC0DDE905235C42A2
:103810002CF000411C4341EAD474049D22F0004086
:10382000B44205D86C422C4340EAD474B4420BD95C
:103830009DED061B9DED040B02B0BDEC028B04B0A8
:10384000BDE8704000F056B9ACF14054A4F17F647B
:103850001C430BD0022404EAAC7444EAD27405433E
:103860009FED538B9FED542B07D015E09DED040B7E
:1038700051EC100B00F0B4FB42E0002C11BF012C06
:103880009DED040B02B0BDEC028B04BF04B070BD13
:10389000022C38D0032C3BD00B439FED491B9FEDEE
:1038A0004A0B0AD0B14218D1B04209D121F080416F
:1038B00020F08040079105900FE0002A15DA10E013
:1038C000434B7B44002C08BF93ED000B0DD0012C23
:1038D00010D0022C17D0032C1AD0B0421DD1002AD0
:1038E00003DAB0EE410AF0EE610A02B0BDEC028BE1
:1038F00004B070BD93ED000B51EC100B81F0004152
:1039000041EC100BF1E7B0EE480AF0EE680AECE784
:10391000B0EE420AF0EE620AE7E7401A00153C28D2
:10392000C8BF8DED000B19DCBCF1000FBEBF10F15C
:103930003C0F9FED290B8DED000B0FDB9DED060B72
:1039400053EC102B9DED040B51EC100BFCF7A4FE77
:1039500000F02CFF00F044FBCDE90001002C08BF73
:103960009DED000BC1D0012C10D0022C9FED1C0B43
:1039700053EC102B9DED000B51EC100B0DD0FCF710
:1039800085FE53EC182BFCF781FEB9E7019880F017
:10399000004001909DED000BA7E7FCF777FE53EC8C
:1039A000182BFCF776FEABE70000F07F000000006C
:1039B000182D4454FB210940182D4454FB2109C003
:1039C000182D4454FB21F9BF182D4454FB21F93F15
:1039D000223C000000000000000000000000000089
:1039E000075C143326A6A13C70B504462DED028B6E
:1039F0004D1E00EBC500B0EE408AF0EE608A90EDFF
:103A0000000B35F0060017D053EC182B51EC100BBF
:103A1000FCF747FC41EC100B6D1E04EBC50090ED6C
:103A2000001B51EC100B53EC112BFCF78EFD41ECFD
:103A3000100B35F00600E7D1022D36D0042D1CD036
:103A4000062D1CBFBDEC028B70BD53EC182B51EC46
:103A5000100BFCF726FC94ED0A1B53EC112BFCF722
:103A600074FD53EC182BFCF71CFC94ED081B53EC75
:103A7000112BFCF76AFD41EC100B53EC182B51ECA9
:103A8000100BFCF70EFC94ED061B53EC112BFCF70E
:103A90005CFD53EC182BFCF704FC94ED040B53EC89
:103AA000102BFCF752FD41EC100B53EC182B51EC92
:103AB000100BFCF7F6FB94ED021B53EC112BFCF7FB
:103AC00044FD53EC182BFCF7ECFB94ED001B53EC7E
:103AD000112BFCF73AFDBDEC028B41EC100B70BDD5
:103AE00010B553EC102B51EC100BFCF72EFD41ECF4
:103AF000100B10BD10B553EC112B51EC100BFCF753
:103B000024FD41EC100B10BD9FED050B10B553ECDF
:103B1000102B51EC100BFCF7BFFD41EC100B10BD4E
:103B200000000000000000009FED050B10B553ECF5
:103B3000102B51EC100BFCF7B4FB41EC100B10BD3B
:103B4000000000000000001002E008C8121F08C1B9
:103B5000002AFAD170477047002001E001C1121F0E
:103B6000002AFBD17047000001490860704700003F
:103B70005C0000202DE9FF4F8DB00F460546002662
:103B800006E025280BD0DDE90F1290476D1C761C4E
:103B900028780028F5D111B03046BDE8F08F002418
:103BA000A246A1460122EC4900E0044315F8013F7A
:103BB000203B02FA03F00842F7D128782A2810D0D7
:103BC0006FF02F022878A0F13001092914D80AEBF0
:103BD0008A0102EB410144F0020400EB010A6D1C72
:103BE000F0E701CF5FEA000A03D544F40054CAF1BC
:103BF000000A44F002046D1C28782E2817D115F80D
:103C0000010F44F004042A280ED06FF02F02287808
:103C1000A0F1300109290AD809EB890102EB410121
:103C200000EB01096D1CF2E757F8049B6D1C287826
:103C30006C280FD006DC4C2817D068280DD06A28D5
:103C400014D104E0742810D07A280FD10DE044F488
:103C500000140AE044F4801401E044F4401469784C
:103C6000814202D104F580146D1C6D1C2A786E2AE5
:103C70001FD00CDC632A31D004DC002A8BD0582AF8
:103C800011D1A3E0642A68D0692A0CD165E0732AB7
:103C90002ED004DC6F2A73D0702A04D19BE0752AE1
:103CA0006FD0782A6ED01046DDE90F129047761C4F
:103CB00050E1C4F30250022806D0032809D004289A
:103CC00001CF09D0066045E101CFF117C0E90061DD
:103CD00040E101CF06803DE106703BE117F8040B9F
:103CE0008DF8000000208DF80100EB46012003E074
:103CF00057F804BB4FF0FF3061074FF0000102D4CA
:103D00000DE008F10101884649450FDA8045F8DBEE
:103D10001BF808100029F4D108E008F101018846D9
:103D20008142FADB1BF808100029F6D1DDE90F23E8
:103D3000AAEB08008146214600F036F9304400EB3A
:103D4000080604E0DDE90F121BF8010B9047B8F1FB
:103D50000108F7D221464846F7E00A21C4F302538E
:103D60004FF0000B0891022B04D001CFC117032B99
:103D700009D00AE0FF1D27F00707F7E8020108E075
:103D800032E01FE020E000B2C117042B01D140B2A5
:103D9000C117031E71F1000307DA4FF0000CD0EBDE
:103DA0000C006CEB01012D2302E0230504D52B232D
:103DB0008DF82430012303E0E30701D02023F7E747
:103DC000984658E00A2110E010210EE010204FF034
:103DD000000B08900CE010214FF0000B44F004049D
:103DE0004FF00809089103E008214FF0000B0891FB
:103DF000C4F30253022B04D001CF0021032B06D0C1
:103E000006E0FF1D27F00707F7E8020103E080B294
:103E1000042B00D1C0B24FF0000823072BD5702A25
:103E200007D0DDF820C08CF0100C5CEA0B0C05D03C
:103E30000EE040238DF82430012308E050EA01030E
:103E400006D030238DF824308DF8252002239846A3
:103E5000DDF820C08CF0080C5CEA0B0C0BD150EAAA
:103E6000010301D1630706D530238DF824304FF0CC
:103E70000108A9F10109582A04D038A20B9208AA16
:103E80000A920BE03AA2F9E75B46089AFCF7A0F920
:103E90000B9B9B5C0A9A521E0A92137050EA010215
:103EA000F2D10A98ADEB000000F1200B600702D5BB
:103EB00024F4803401E04FF00109D94502DDA9EB7B
:103EC0000B0000E0002000EB0B0141440890AAEB3E
:103ED000010AE00306D4DDE90F232146504600F035
:103EE00063F806444FF0000908E009A911F8090039
:103EF000DDE90F12904709F10109761CC145F4DB99
:103F0000E0030CD5DDE90F232146504600F04CF8C4
:103F1000064404E0DDE90F1230209047761C089932
:103F2000481E08900029F5DC08E00A980A990078F4
:103F3000491C0A91DDE90F129047761CBBF1000184
:103F4000ABF1010BF1DC21465046DDE90F2300F017
:103F500019F806446D1C1BE6092801003031323384
:103F600034353637383961626364656600000000B5
:103F7000303132333435363738394142434445469F
:103F8000000000002DE9F041044600251E461746BA
:103F9000880404D405E039462020B0476D1C641E17
:103FA000F9D52846BDE8F0812DE9F0410446002509
:103FB0001E469046C80301D5302700E0202788041C
:103FC00004D505E041463846B0476D1C641EF9D55E
:103FD0002846BDE8F0810A68531C0B6010707047DA
:103FE00010B541EC100BFFF79BFA51EC100B10BD14
:103FF00008B560B120208DF8000028208DF8010060
:1040000030208DF8020038208DF8030004E0A32250
:1040100004216846FCF71FF96A46042140F69E20F9
:1040200001F02CFA00F070FF08BD00003EB5044618
:1040300002208DF80000CA208DF80100E3208DF8E1
:10404000020009208DF803006A460421682001F06F
:1040500015FAA3208DF80000610609D5C0218DF85E
:104060000110C8218DF80210C2218DF8031005E05F
:104070008DF801008DF802008DF8030014F4C07F64
:1040800009D0C4218DF80410CC218DF80510C6216B
:104090008DF8061005E08DF804008DF805008DF808
:1040A00006008DF808008DF807008DF809006A46B3
:1040B0000A2140F6A72001F0E1F9A0074FF0D8054A
:1040C00003D020208DF8000001E08DF800506A46F2
:1040D000012140F6B62001F0D1F9A00601D501205A
:1040E00000E0002000F08EF814F4C07F1ED0E00540
:1040F0000AD5B2208DF800008B208DF80100B62083
:104100008DF802009B2009E0B0208DF8000080208F
:104110008DF80100B4208DF8020090208DF8030086
:104120006A46042140F6A22001F0A8F9E1074FF405
:104130000B6022D0F8218DF800106A46012101F0B1
:104140009DF9FA21072000F067FA072000F032FA03
:10415000012000F04FFA642000F008FB4FF4FA70E1
:1041600000F014FBC821254800F0ECF9282000F0ED
:1041700001FA0A2000F00EFA05E08DF800506A46B8
:10418000012101F07BF9A00703D5D9208DF80000AB
:1041900001E08DF800506A46012140F23D7001F0C7
:1041A0006DF9600701D5012000E0002000F048F81B
:1041B000E00601D5012000E00020FFF719FF104DB7
:1041C00044F00800688100F09FFE0020A87360069C
:1041D00001D50620A87314F4C07F02D0A87B801DEF
:1041E000A87314F0140F02D0A87B1030A873A00796
:1041F00002D0A87B001DA87300203EBD09E3CA02BF
:10420000786200200EB54FF4976310B106A107C97C
:1042100001E008A207CA8DE807006A46092118468E
:1042200001F02CF90EBD0000B8AAB38DB4980D357D
:104230005D000000B8AAAAAAB088C3C5C7000000E4
:1042400008B560B1C0208DF80000C2208DF80100D3
:10425000C4208DF80200C6208DF8030004E08B22F4
:1042600004216846FBF7F7FF6A46042140F69820D0
:1042700001F004F900F048FE08BD0000C8234FF427
:104280008062024940F6F63000F018BD94670008DD
:104290002DE9F04F89B01746DDE9125200244C4E4B
:1042A000884681462C80A246B07B694600F0B4FD6A
:1042B0004FF0FF3B18B1584609B0BDE8F08F708948
:1042C00010F0140F3ED0009909BA21F0FF029DF8BA
:1042D00003100A433A6001999DF8073009BA21F0AA
:1042E000FF0119437960029B9DF80B401BBA23F034
:1042F000FF032343BB60039C121424BA24F0FF0C79
:104300009DF80F4009144CEA040C1024C7F80CC0A7
:104310001B144FEA2C4712FB02F211FB012113FB85
:1043200003F217FB07221144A1F17061B1F1007F84
:1043300004D900F0E9FDA5F800A0BCE7298841F404
:10434000807129804206694611D50A19A41D138877
:104350005BBAA8F8003053885BBAA8F8023092889C
:1043600052BAA8F804202A8842F008022A8010F4E1
:10437000C07F11D00A19A41D13885BBAA9F80030B8
:1043800053885BBAA9F80230928852BAA9F804207F
:104390002A8842F070022A80800716D00C44E07808
:1043A00000F0C00500F03F016078C00706D0C808E3
:1043B00001F007013268491C02B19047607800079C
:1043C00003D5716809B1A8098847002074E7000087
:1043D0007862002030B5044613A285B007CA8DE884
:1043E00007004FF0FF35C82C16D8C820B0FBF4F1F9
:1043F000491E080A8DF80C008DF80D1003AA022141
:1044000040F2162001F03AF830B96A460C2140F625
:10441000C12001F033F810B1284605B030BD054881
:1044200084810020F9E70000FEF2ABC4AAF1DFDFCF
:10443000BBAFDFDF786200202DE9FF4104463CA0DE
:1044400004F00303006802903AA0006803903AA0C9
:1044500006683AA0056802A8C15C8DF80010C4F394
:10446000C101425C8DF80120C4F38112805C8DF89B
:10447000020003A8C35C8DF80430415C8DF8051080
:10448000805C8DF806006A46032140F2264000F069
:10449000F5FF4FF0FF37E0BB01AA032140F22A40AD
:1044A00000F0ECFFA8BBCDE9006560070BD59DF8D7
:1044B000000040F001008DF800009DF8040040F07D
:1044C00001008DF80400A0060BD59DF8010040F016
:1044D00001008DF801009DF8050040F001008DF805
:1044E0000500E0050BD59DF8020040F001008DF8B5
:1044F00002009DF8060040F001008DF806006A46B3
:1045000003214FF4886000F0B9FF10B901AA03211C
:1045100000E004E040F2314000F0B0FF18B138464E
:1045200004B0BDE8F081064804810020F8E70000EF
:104530004CCD6C000CC92C00365676002646660021
:10454000786200204FF47A7290FBF2F008B548438D
:10455000010E8DF80010010C8DF80110010A8DF884
:1045600002108DF803006A4604214FF4AE7000F08B
:1045700085FF08BD0521B0FBF1F008B5010A8DF8F3
:1045800000108DF801006A4602214FF4AD7000F072
:1045900075FF08BD0521B0FBF1F008B5010A8DF8E3
:1045A00000108DF801006A4602214FF4AC7000F053
:1045B00065FF08BD08B500218DF80010C10702D0C5
:1045C00030218DF80010810705D59DF8001041F0CD
:1045D0000C018DF80010400705D59DF8000040F053
:1045E00003008DF800006A4601214FF4A47000F02A
:1045F00045FF08BD08B560B1042800D90420401E5D
:104600008DF800006A46012140F24F1000F036FF9D
:1046100008BD0120F3E700007CB5044640074FF0D9
:10462000FF357DD0B1F5C86F7AD800EE101AF8EEDC
:10463000400A9FED451A01A880EE810A00F060FA59
:104640009DF80400022806D0042810D0082835D090
:10465000102874D13EE0DFED3D0A60EE200AFCEE4A
:10466000E00A10EE900ADFED3A0A82B20AE0DFEDCE
:10467000390A60EE200AFCEEE00A10EE900ADFED47
:10468000360A82B220EE200A6E46BCEEC00A10EE58
:10469000100A81B2100A8DF800008DF80120080A76
:1046A0008DF802008DF80310E00726D03246022173
:1046B0004FF4EA7000F0E2FE90BB17E0DFED270A4E
:1046C00060EE200AFCEEE00A10EE900ADFED240A0C
:1046D00082B2D7E7DFED230A60EE200AFCEEE00AA3
:1046E00010EE900ADFED200A82B2CBE7B21C022165
:1046F0004FF4927000F0C2FE90B9A0070DD56A4643
:1047000002214FF4EC7000F0B9FE48B9B21C02214E
:104710004FF4947000F0B2FE10B9600711D500E0BC
:104720000DE06A4602214FF4EE7000F0A7FE30B9AA
:10473000B21C02214FF4967000F0A0FE08B128468A
:104740007CBD00207CBD0000000048430000804686
:1047500000004046000000460000C04500008045C3
:1047600000004045000000450000C0440521B0FBAA
:10477000F1F008B5010A8DF800108DF801006A46C5
:1047800002214FF4EF7000F079FE08BD0521B0FB67
:10479000F1F008B5010A8DF800108DF801006A46A5
:1047A00002214FF4ED7000F069FE08BD82B0CDE942
:1047B000000121F0004001909DED000B02B051EC92
:1047C000100B704738B504468DF800006946032089
:1047D000ABBE204638BD00B5024600F00DF80346DA
:1047E000D01C00F009F843EAC003901D00F004F863
:1047F00043EA801080B200BD90F90010002902DD6C
:104800004FF00000704702DA4FF00400704790F953
:104810000110002902DD4FF00100704702DA4FF06D
:104820000500704790F90200002802DD4FF00200F9
:10483000704702DA4FF0060070474FF007007047EC
:1048400008B5FCF797FAFEF78BF9FDF745FDFDF784
:104850002DFDFDF703FEFDF739FEFDF7B9FDFDF770
:10486000DBFDFDF797FEFEF721FC01200021009003
:1048700010230BA20846FEF74BF8FDF721FF00F0CE
:10488000ADFE282594FBF5F005FB10403C3080B2CE
:104890006421641C00F020FE6420FCF777F9F1E746
:1048A000D5FDB3A3C4A3CABD4F4C454400000000CE
:1048B0002DE9F041124C20F00101002594F824006C
:1048C00010B10020BDE8F081A07A4FF0FF3668B14A
:1048D0000840277C2074884200D0354641B1012031
:1048E00000F018FE00F010FB38B127743046E9E7FD
:1048F000207D00B1012000F00DFE2846E2E7000017
:104900001000002070B50D462DED0C8B8EB00646C4
:104910000CA902A81446F7EE00BACDE900010BABD2
:1049200003AA09A907A8FFF7B3FC20B101200EB024
:10493000BDEC0C8B70BDBDF80800C0057ED59DEDAB
:10494000030AF8EEC00A9FED450AB0EE00CA60EE19
:10495000809ADDED040AF8EEE00A69EE8CCA20EEDA
:10496000808ADDED050AF8EEE00A60EE808ADDED72
:10497000060AF8EEE00A20EE809AB8EE000A28EE69
:1049800000BA2BEE090A0CEEA80A10EE100AFBF78B
:10499000FAFC41EC100BFEF713FC9FED31AB51EC30
:1049A000100B53EC1A2BFBF77CFCFBF7FFFC2BEEF8
:1049B000080A28EE8CDA30600DEE680A30EE2B0A19
:1049C00010EE100AFBF7DFFC2DEE090A41EC1B0B81
:1049D0000CEE880A10EE100AFBF7D5FC41EC100B28
:1049E000B0EE4B1AF0EE6B1AFEF706FF53EC1A2BE3
:1049F00051EC100BFBF755FCFBF7D8FC29EEA90A8C
:104A0000286008EE080A08EEE80A09EE490A10EEE6
:104A1000100AFBF7B8FC28EE280A41EC1B0B09EE44
:104A2000890A20EE0C0A10EE100AFBF7ACFC41ECF0
:104A3000100BB0EE4B1AF0EE6B1A00E00CE0FEF734
:104A4000DBFE53EC1A2B51EC100BFBF72AFCFBF7A7
:104A5000ADFC206000206AE7022068E7000080309B
:104A60006666666666A64C4010B500F067F888BBBF
:104A7000782000F0A7FC10F0FF0F01D0012010BD3E
:104A80007820FFF715FF10F0FF0F01D0022010BDB6
:104A9000642000F055FC10F0FF0F01D0032010BD82
:104AA000FFF7ECFB10F0FF0F01D0042010BD1348FE
:104AB000FFF791FEFFF7C0FC10F0FF0F01D00520BB
:104AC00010BD40F27310FFF7B1FA10F0FF0F02D0E3
:104AD000062010BD0FE06420FFF77CFC10F0FF0FF4
:104AE00001D00720F5E7012000F050FB10F0FF0F88
:104AF00001D00920EDE70020EBE700003C0000209A
:104B00000D494A7A42B1012A08D0022A0FD0032A5D
:104B10000FD04FF0FF307047022200E004220270F5
:104B2000C97C11B11106C90D01700020704708221F
:104B3000F5E71022F3E70000100000202DE9FC410A
:104B40004A4C80208DF800002068261F6B46817C2F
:104B500001223078FDF780FB4FF0FF3800287CD130
:104B60006420FCF713F800258DF8005020686B4690
:104B70000122817C3078FDF76FFB00286DD1206821
:104B80006B460622817D3078FDF7D2FA002864D189
:104B90009DF805009DF80310C007400F01F00101CA
:104BA00040EA41019DF801004FF0010700F00100CB
:104BB000014309D0012905D0022914D02CA0FEF709
:104BC000B3FA4AE0E7740FE020686B460122C1782F
:104BD0003078FDF7ADFA38BB9DF8000010F00F00FB
:104BE0001FD0042821D0E574FF20A07204F8080F1C
:104BF0004FF6FF716070E070E1802072A072277143
:104C0000A776E5766573257346F81A5F4FF4FA6068
:104C10007560B56025776577E58300F0F1FA18B91E
:104C200007E01D48FEF780FA17E01CA0FEF77CFAAB
:104C3000C8E7022000F00CFA78B92A2000F04AFBFD
:104C400058B9322000F07CFB38B90020FFF730FE65
:104C500018B9002000F030FA10B14046BDE8FC81E0
:104C6000002000F0AFFB0020F8E70000100000205B
:104C7000556E737570706F7274656420736F6674AF
:104C8000776172652070726F6475637420726576E7
:104C90002025642E0A0000005075000848616C66EB
:104CA0002073656E736974697669747920706172B6
:104CB0007420666F756E642E0A0000002DE9FF4FA8
:104CC000DFF89480064685B098F8250015460F4613
:104CD0004FF0FF39B0BBAFB3002420E0301B1028E9
:104CE00000DD102080B283463A19014692462046E4
:104CF00000F0C4FB30BB6A465946204600F0D6F8A7
:104D000000BB50465A466946FBF7BEFA20B16FF029
:104D1000010009B0BDE8F08F04EB0B0084B2B4428F
:104D2000DCD3280A8DF810008DF81150D8F8000057
:104D3000444604AB817E08480222001F0078FDF73C
:104D40008BFA08B14846E4E7012084F8250008986A
:104D5000E0840020DDE70000100000202DE9F84F7E
:104D600004464FF0FF3A282847D8DFF8A8900727D5
:104D7000002609F104057CB1012000F079FA202019
:104D80008DF800004FF00108012C17D0052C18D821
:104D90008DF8018005201FE0002000F069FA8DF8F1
:104DA00000608DF8017028686B460222817C99F8BA
:104DB0000000FDF751FA00BB2E7529E08DF8016067
:104DC000E8E7142C04D802208DF801000A2003E043
:104DD00003208DF80100142000F07CFA9DF80100FA
:104DE0006B4607EB80108DF8010028680222817C59
:104DF00099F80000FDF730FA10B15046BDE8F88F81
:104E00000820A8722E7385F814800020FFF750FD4B
:104E10000020F3E70C0000202DE9F84F224C064655
:104E2000904694F824008A464FF0FF3990B3A07A58
:104E300080B32068271F6B46817A02223878FDF7FD
:104E400077F938BBBDF8000045BAB54203D200215E
:104E500088F800101EE060684088B5EB500F11D94B
:104E600020686B460122417C3878FDF761F988B9EA
:104E70009DF80000C00605D500F046F86FF001006F
:104E8000BDE8F88F2068F2B25346C17A3878FDF752
:104E90004FF908B14846F3E7B5FBF6F0401E88F835
:104EA00000000020ECE70000100000202DE9F8438E
:104EB0005FEA02080D464FF0FF361FD0114CA17A71
:104EC000E1B1010A8DF80010C0B28DF801006168EF
:104ED00028444989884211D82068271F6B46017EE3
:104EE00002223878FDF7B8F940B92068EAB24346A3
:104EF000417D3878FDF71CF9002800D03046BDE828
:104F0000F883000010000020F8B5504C4FF0FF3738
:104F1000A07A002877D000268DF800602068251F31
:104F20006B46C17B01222878FDF796F900286AD1EB
:104F300020686B46012241792878FDF78DF9002819
:104F400061D120686B46012201792878FDF784F948
:104F5000002878D194F82400B8B30C208DF8000014
:104F600020686B46012201792878FDF775F9002841
:104F700069D13220FBF70AFEC0208DF80000A07A2C
:104F8000C00702D0E0208DF8000020686B460122A7
:104F900001792878FDF760F9A8BB607C18B1022080
:104FA0008DF8000001E08DF8006020686B4601225A
:104FB000C17B2878FDF750F928BB8DF80060206888
:104FC0006B4601224179287839E0FFE704208DF80B
:104FD000000020686B46012201792878FDF73CF932
:104FE00088B9A07C80B9A07AC0070DD05FF06000BE
:104FF0008DF8000020686B46012201792878FDF7C2
:105000002BF900B902E01EE04020F1E73220FBF767
:10501000BDFD607C18B101208DF8000001E08DF825
:10502000006020686B460122C17B2878FDF714F9E7
:1050300048B92068054B0122417910332878FDF7E3
:105040000BF9002800D03846F8BD00001000002001
:1050500038B5184C4FF0FF35A17A21B3022806D09D
:10506000042806D008280ED010281CD10DE00020FE
:1050700000E008208DF80000607A9DF80010B0EB89
:10508000D10F04D005E01020F4E71820F2E700204B
:1050900038BD20686B460122C1790648001F0078A0
:1050A000FDF7DAF808B1284638BD9DF80000C008C1
:1050B0006072ECE710000020F8B5334C0646A07C87
:1050C000B04201D10020F8BD2F482F4D4FF0FF37DF
:1050D00000682D1F6B46017928784FF0010226B336
:1050E000FDF726F8C0BB9DF800006B4620F02000BD
:1050F0008DF800002068012201792878FDF7ACF8CE
:1051000050BB0320FBF742FD02208DF8000094F80D
:10511000220060B3822028E020686B460122017DD6
:105120002878FDF799F8B8B92CE0FDF701F898B99F
:10513000A07AC0079DF8000002D040F0200001E0F6
:1051400020F020008DF8000020686B4601220179D4
:105150002878FDF781F808B13846F8BD0320FBF741
:1051600015FD94F8220000B180208DF8000094F81D
:1051700023000028D0D09DF8000040F030008DF8CA
:105180000000C9E7A6749DE710000020F8B51B4C8D
:1051900094F8241081421DD00025261FF8B194F800
:1051A0002500C8B1002000F0B5F90020FFF784FF0A
:1051B000E08C00F0C5F88DF800506B4601222321E9
:1051C0003078FDF749F8012084F8240000F0A2F9B6
:1051D000FFF79AFE0020F8BD4FF0FF30F8BD002029
:1051E00000F098F9207C8DF800006B460122232105
:1051F0003078FDF731F884F82450E9E710000020FA
:1052000038B51A4C4FF0FF35A17A39B3FA2809D0D6
:10521000B0F5FA7F08D0B0F57A7F0FD0B0F5FA6F0D
:105220001CD10DE0002000E008208DF80000207A5D
:105230009DF80010B0EBD10F04D005E01020F4E78A
:105240001820F2E7002038BD20686B4601228179E2
:105250000648001F0078FCF7FFFF08B1284638BD5C
:105260009DF80000C0082072ECE70000100000204C
:1052700038B5174C054694F82300A84201D1002008
:1052800038BD0DB1302000E000208DF80000A07C7A
:1052900028B19DF8000040F002008DF8000094F85D
:1052A000220028B19DF8000040F080008DF8000039
:1052B00020686B460122017D0548001F0078FCF73D
:1052C000CBFF10B14FF0FF3038BD84F82350D6E744
:1052D0001000002038B5194C4FF0FF35A17A39B3D2
:1052E000BC2801D3012010E0622801D302200CE089
:1052F0002A2801D3032008E0142801D3042004E065
:105300000A2801D3052000E006208DF80000E07A8D
:105310009DF80010884201D1002038BD20686B46FE
:10532000012281780548001F0078FCF795FF08B13D
:10533000284638BD9DF80000E072EDE7100000201F
:10534000F8B51F4D04464FF0FF37A87A50B395F8D3
:10535000240038BB287D4FF47A7648B164B1282CFC
:1053600003D8E0B2FFF7FAFC27E00020FFF7F6FCD5
:10537000042C05D2042406E00020FFF7EFFCF9E737
:10538000B44200D93446B6FBF4F0401E8DF800005C
:1053900028686B46012241780948001F0078FCF715
:1053A0005BFF08B13846F8BD9DF80000401CB6FB15
:1053B000F0F0E8814008FFF78DFF0020F8BD000005
:1053C000100000202DE9F843044610F0700F4FF054
:1053D000000601D0012004E014B18DF8006002E065
:1053E00040208DF80000244D6B462F1F28680122B5
:1053F000817C3878FCF730FF4FF0FF3858BB9DF8C0
:10540000000020F0400028738DF80060600602D490
:1054100004208DF80000A00605D49DF8000040F09F
:1054200002008DF80000E00605D49DF8000040F071
:1054300001008DF80000200705D49DF8000040F021
:1054400038008DF8000028686B460122C17C38784E
:10545000FCF702FF18B1AE724046BDE8F88324B1F4
:10546000082C02D00020FFF703FFAC722E7532200B
:10547000FBF78CFB0020F0E7100000202DE9F8433B
:105480005FEA02080D464FF0FF361FD0114CA17A9B
:10549000E1B1010A8DF80010C0B28DF80100616819
:1054A00028444989884211D82068271F6B46017E0D
:1054B00002223878FCF7D0FE40B92068EAB24346B1
:1054C000417D3878FCF7C8FE002800D03046BDE8A2
:1054D000F88300001000002003B589B005208DF886
:1054E00000009DF825008DF802009DF824008DF83D
:1054F00003009DF829008DF804009DF828008DF820
:10550000050004208DF80100684600F003F90BB097
:1055100000BD0000F8B5144C0022214694F8243058
:10552000261F0968551E53B178B1022011E0C97BCE
:105530006B4601223078FCF78FFE68B90EE0A37A43
:1055400053B110B1607C60B902E08DF80020EEE745
:1055500001208DF80000EAE72846F8BD9DF800001C
:1055600060740020F8BD00001000002000B52DED93
:10557000048B83B041EC190BFBF722F941EC180BBB
:1055800018EE100A18EE901A8DED008B002818BF47
:105590000120084320F00040C0F17F6000F1E040AE
:1055A000C00F14D019EE101A19EE900A8DED009B61
:1055B000002918BF0121084320F00040C0F17F609E
:1055C00000F1E040C00F04BF0120FEF7CDFA51EC1E
:1055D000180B03B0BDEC048B00BD000038B50124EE
:1055E0000120FDF7AFFAFCF743FD020010D016A131
:1055F0001848FDF7A9FD1023164A20210020009429
:10560000FDF786F9FDF75CF86420FBF7BFFAE7E7E2
:10561000FFF72AFA020010D00FA10E48FDF794FD03
:1056200010230C4A202100200094FDF771F9FDF7AA
:1056300047F86420FBF7AAFAEAE70A480470BDE8D5
:105640003840642000F010B84D5055313A2533648D
:105650000000000060000020444D50313A253364C2
:10566000000000000000002070B58AB0054600244C
:105670003DE009AA08A907A8FFF744F958B9FCF7C3
:10568000CDFC05AA02A901A8FCF790FC06AA04A972
:1056900003A8FCF7A7FCBDF914000090BDF9083081
:1056A000BDF9042014A11748FDF74EFD01260C2377
:1056B000144A102100200096FDF72AF9BDF91800C0
:1056C0000090BDF91030BDF90C200FA10D48FDF779
:1056D0003BFD0C230B4A282100200096FDF718F90A
:1056E000FCF7EEFF3220FBF751FA641CE4B2AC4247
:1056F000BFD30AB070BD0000413A25642C25642C4C
:105700002564000060000020473A25642C25642CA5
:105710002564000070B504468AB0AA208DF8000008
:105720008DF8010020788DF8020060788DF8030074
:1057300000266278A11C6D4601A8FAF77AFD62780E
:105740000020111D521D03E02B5C401C3344DEB2CF
:105750008842F9DBA8184FF6FF7300F8016C694620
:105760000248FCF792FA0AB070BD0000C8010020A0
:105770000000000000000000000000000000000029
:105780003F400000000000000000300040003000FA
:105790004000000009000BC03D000BC03D000900A7
:1057A00018C024407FE0224031800000180024C04F
:1057B0001B000D803240018003801C4027401C806C
:1057C00007400040100060000000000000000000E2
:1057D0000000000000001F8020404020000040200A
:1057E00020401F8000000000090006001F80060006
:1057F00009000000040004003F80040004000000D1
:105800000010006000000000000000000400040020
:10581000040004000400000000000040000000003C
:1058200000000000002001C0060038004000000019
:105830001F802040204020401F80000000001040BA
:105840003FC000400000000018C02140224024401A
:105850001840000010802040244024401B8000009D
:1058600002000D0011003FC0014000003C802440B8
:1058700024402440238000001F80244024403440E2
:10588000038000003000200027C038002000000006
:105890001B802440244024401B8000001C0022C0A8
:1058A000224022401F80000000000000084000004D
:1058B0000000000000000000046000000000000084
:1058C000000004000A001100208040400900090087
:1058D000090009000900000000004040208011007C
:1058E0000A000400180020002340240018000000D3
:1058F0001F802040274029401F400000004007C073
:1059000039000F0001C0004020403FC02440244027
:105910001B8000001F80204020402040308000007D
:1059200020403FC0204020401F80000020403FC05A
:1059300024402E4030C0000020403FC024402E00B4
:10594000300000000F001080204022403380020011
:1059500020403FC0040004003FC0204020402040C1
:105960003FC02040204000000060202020203FC099
:105970002000200020403FC024400B0030C02040C9
:1059800020403FC020400040004000C03FC03C00DD
:1059900003C03C003FC0000020403FC00C4023003B
:1059A0003FC020001F802040204020401F8000007A
:1059B00020403FC024402400180000001F802140E8
:1059C000214020E01FA0000020403FC024402600CE
:1059D00019C0004018C024402440224031800000FB
:1059E000300020403FC020403000000020003F80B9
:1059F000004000403F80200020003E0001C0070022
:105A000038002000380007C03C0007C03800000004
:105A1000204039C0060039C0204000002000384036
:105A200007C0384020000000304021C026403840E8
:105A300020C00000000000007FE040204020000067
:105A4000000070000C0003800040000000004020B7
:105A500040207FE000000000000020004000200007
:105A600000000000001000100010001000100010D6
:105A70000000000040000000000000000000028064
:105A80000540054003C0004020003FC004400440E2
:105A90000380000000000380044004400640000032
:105AA00000000380044024403FC000400000038009
:105AB0000540054003400000000004401FC0244092
:105AC00024402000000002E005500550065004204C
:105AD00020403FC00440040003C0004000000440D8
